{"src/contracts/KYCHashStore.sol":{"KYCHashStore":{"abi":[{"anonymous":false,"inputs":[{"indexed":true,"internalType":"address","name":"user","type":"address"},{"indexed":true,"internalType":"bytes32","name":"hash","type":"bytes32"},{"indexed":false,"internalType":"uint256","name":"timestamp","type":"uint256"}],"name":"KYCStored","type":"event"},{"anonymous":false,"inputs":[{"indexed":true,"internalType":"address","name":"user","type":"address"},{"indexed":true,"internalType":"bytes32","name":"oldHash","type":"bytes32"},{"indexed":true,"internalType":"bytes32","name":"newHash","type":"bytes32"},{"indexed":false,"internalType":"uint256","name":"timestamp","type":"uint256"}],"name":"KYCUpdated","type":"event"},{"inputs":[{"internalType":"address","name":"_user","type":"address"}],"name":"getKYCHash","outputs":[{"internalType":"bytes32","name":"","type":"bytes32"}],"stateMutability":"view","type":"function"},{"inputs":[{"internalType":"address","name":"_user","type":"address"}],"name":"hasKYC","outputs":[{"internalType":"bool","name":"","type":"bool"}],"stateMutability":"view","type":"function"},{"inputs":[{"internalType":"address","name":"","type":"address"}],"name":"isKYCVerified","outputs":[{"internalType":"bool","name":"","type":"bool"}],"stateMutability":"view","type":"function"},{"inputs":[{"internalType":"address","name":"","type":"address"}],"name":"kycHash","outputs":[{"internalType":"bytes32","name":"","type":"bytes32"}],"stateMutability":"view","type":"function"},{"inputs":[{"internalType":"bytes32","name":"_hash","type":"bytes32"}],"name":"storeKYC","outputs":[],"stateMutability":"nonpayable","type":"function"},{"inputs":[{"internalType":"address","name":"_user","type":"address"},{"internalType":"bytes32","name":"_hash","type":"bytes32"}],"name":"verifyKYC","outputs":[{"internalType":"bool","name":"","type":"bool"}],"stateMutability":"view","type":"function"}],"evm":{"bytecode":{"linkReferences":{},"object":"608060405234801561001057600080fd5b50610322806100206000396000f3fe608060405234801561001057600080fd5b50600436106100625760003560e01c806305364096146100675780635249e862146100a357806354b7636e146100df5780636bf127c014610102578063a5b50ee214610117578063d7ed6f141461012a575b600080fd5b61009061007536600461028e565b6001600160a01b031660009081526020819052604090205490565b6040519081526020015b60405180910390f35b6100cf6100b136600461028e565b6001600160a01b031660009081526001602052604090205460ff1690565b604051901515815260200161009a565b6100cf6100ed36600461028e565b60016020526000908152604090205460ff1681565b6101156101103660046102a9565b61014a565b005b6100cf6101253660046102c2565b610245565b61009061013836600461028e565b60006020819052908152604090205481565b806101925760405162461bcd60e51b8152602060048201526014602482015273486173682063616e6e6f7420626520656d70747960601b604482015260640160405180910390fd5b336000908152602081815260408083208054908590556001928390529220805460ff19169091179055801561020a578181336001600160a01b03167f161e4e10ae8c8e7bddc82c819444417dabef775813420dfd504fac79fe5ecb0b426040516101fe91815260200190565b60405180910390a45050565b604051428152829033907f45dad2c06ba602c18eb71ecf7366723466e1e57ce6d4483f8354ebaf5bec43d89060200160405180910390a35050565b6001600160a01b0382166000908152602081905260408120548214801561026b57508115155b9392505050565b80356001600160a01b038116811461028957600080fd5b919050565b6000602082840312156102a057600080fd5b61026b82610272565b6000602082840312156102bb57600080fd5b5035919050565b600080604083850312156102d557600080fd5b6102de83610272565b94602093909301359350505056fea2646970667358221220026bda82b289d64ccc37915f4785c0be6aae83ed992e18a5e50a6e69419351cd64736f6c63430008130033","opcodes":"PUSH1 0x80 PUSH1 0x40 MSTORE CALLVALUE DUP1 ISZERO PUSH2 0x10 JUMPI PUSH1 0x0 DUP1 REVERT JUMPDEST POP PUSH2 0x322 DUP1 PUSH2 0x20 PUSH1 0x0 CODECOPY PUSH1 0x0 RETURN INVALID PUSH1 0x80 PUSH1 0x40 MSTORE CALLVALUE DUP1 ISZERO PUSH2 0x10 JUMPI PUSH1 0x0 DUP1 REVERT JUMPDEST POP PUSH1 0x4 CALLDATASIZE LT PUSH2 0x62 JUMPI PUSH1 0x0 CALLDATALOAD PUSH1 0xE0 SHR DUP1 PUSH4 0x5364096 EQ PUSH2 0x67 JUMPI DUP1 PUSH4 0x5249E862 EQ PUSH2 0xA3 JUMPI DUP1 PUSH4 0x54B7636E EQ PUSH2 0xDF JUMPI DUP1 PUSH4 0x6BF127C0 EQ PUSH2 0x102 JUMPI DUP1 PUSH4 0xA5B50EE2 EQ PUSH2 0x117 JUMPI DUP1 PUSH4 0xD7ED6F14 EQ PUSH2 0x12A JUMPI JUMPDEST PUSH1 0x0 DUP1 REVERT JUMPDEST PUSH2 0x90 PUSH2 0x75 CALLDATASIZE PUSH1 0x4 PUSH2 0x28E JUMP JUMPDEST PUSH1 0x1 PUSH1 0x1 PUSH1 0xA0 SHL SUB AND PUSH1 0x0 SWAP1 DUP2 MSTORE PUSH1 0x20 DUP2 SWAP1 MSTORE PUSH1 0x40 SWAP1 KECCAK256 SLOAD SWAP1 JUMP JUMPDEST PUSH1 0x40 MLOAD SWAP1 DUP2 MSTORE PUSH1 0x20 ADD JUMPDEST PUSH1 0x40 MLOAD DUP1 SWAP2 SUB SWAP1 RETURN JUMPDEST PUSH2 0xCF PUSH2 0xB1 CALLDATASIZE PUSH1 0x4 PUSH2 0x28E JUMP JUMPDEST PUSH1 0x1 PUSH1 0x1 PUSH1 0xA0 SHL SUB AND PUSH1 0x0 SWAP1 DUP2 MSTORE PUSH1 0x1 PUSH1 0x20 MSTORE PUSH1 0x40 SWAP1 KECCAK256 SLOAD PUSH1 0xFF AND SWAP1 JUMP JUMPDEST PUSH1 0x40 MLOAD SWAP1 ISZERO ISZERO DUP2 MSTORE PUSH1 0x20 ADD PUSH2 0x9A JUMP JUMPDEST PUSH2 0xCF PUSH2 0xED CALLDATASIZE PUSH1 0x4 PUSH2 0x28E JUMP JUMPDEST PUSH1 0x1 PUSH1 0x20 MSTORE PUSH1 0x0 SWAP1 DUP2 MSTORE PUSH1 0x40 SWAP1 KECCAK256 SLOAD PUSH1 0xFF AND DUP2 JUMP JUMPDEST PUSH2 0x115 PUSH2 0x110 CALLDATASIZE PUSH1 0x4 PUSH2 0x2A9 JUMP JUMPDEST PUSH2 0x14A JUMP JUMPDEST STOP JUMPDEST PUSH2 0xCF PUSH2 0x125 CALLDATASIZE PUSH1 0x4 PUSH2 0x2C2 JUMP JUMPDEST PUSH2 0x245 JUMP JUMPDEST PUSH2 0x90 PUSH2 0x138 CALLDATASIZE PUSH1 0x4 PUSH2 0x28E JUMP JUMPDEST PUSH1 0x0 PUSH1 0x20 DUP2 SWAP1 MSTORE SWAP1 DUP2 MSTORE PUSH1 0x40 SWAP1 KECCAK256 SLOAD DUP2 JUMP JUMPDEST DUP1 PUSH2 0x192 JUMPI PUSH1 0x40 MLOAD PUSH3 0x461BCD PUSH1 0xE5 SHL DUP2 MSTORE PUSH1 0x20 PUSH1 0x4 DUP3 ADD MSTORE PUSH1 0x14 PUSH1 0x24 DUP3 ADD MSTORE PUSH20 0x486173682063616E6E6F7420626520656D707479 PUSH1 0x60 SHL PUSH1 0x44 DUP3 ADD MSTORE PUSH1 0x64 ADD PUSH1 0x40 MLOAD DUP1 SWAP2 SUB SWAP1 REVERT JUMPDEST CALLER PUSH1 0x0 SWAP1 DUP2 MSTORE PUSH1 0x20 DUP2 DUP2 MSTORE PUSH1 0x40 DUP1 DUP4 KECCAK256 DUP1 SLOAD SWAP1 DUP6 SWAP1 SSTORE PUSH1 0x1 SWAP3 DUP4 SWAP1 MSTORE SWAP3 KECCAK256 DUP1 SLOAD PUSH1 0xFF NOT AND SWAP1 SWAP2 OR SWAP1 SSTORE DUP1 ISZERO PUSH2 0x20A JUMPI DUP2 DUP2 CALLER PUSH1 0x1 PUSH1 0x1 PUSH1 0xA0 SHL SUB AND PUSH32 0x161E4E10AE8C8E7BDDC82C819444417DABEF775813420DFD504FAC79FE5ECB0B TIMESTAMP PUSH1 0x40 MLOAD PUSH2 0x1FE SWAP2 DUP2 MSTORE PUSH1 0x20 ADD SWAP1 JUMP JUMPDEST PUSH1 0x40 MLOAD DUP1 SWAP2 SUB SWAP1 LOG4 POP POP JUMP JUMPDEST PUSH1 0x40 MLOAD TIMESTAMP DUP2 MSTORE DUP3 SWAP1 CALLER SWAP1 PUSH32 0x45DAD2C06BA602C18EB71ECF7366723466E1E57CE6D4483F8354EBAF5BEC43D8 SWAP1 PUSH1 0x20 ADD PUSH1 0x40 MLOAD DUP1 SWAP2 SUB SWAP1 LOG3 POP POP JUMP JUMPDEST PUSH1 0x1 PUSH1 0x1 PUSH1 0xA0 SHL SUB DUP3 AND PUSH1 0x0 SWAP1 DUP2 MSTORE PUSH1 0x20 DUP2 SWAP1 MSTORE PUSH1 0x40 DUP2 KECCAK256 SLOAD DUP3 EQ DUP1 ISZERO PUSH2 0x26B JUMPI POP DUP2 ISZERO ISZERO JUMPDEST SWAP4 SWAP3 POP POP POP JUMP JUMPDEST DUP1 CALLDATALOAD PUSH1 0x1 PUSH1 0x1 PUSH1 0xA0 SHL SUB DUP2 AND DUP2 EQ PUSH2 0x289 JUMPI PUSH1 0x0 DUP1 REVERT JUMPDEST SWAP2 SWAP1 POP JUMP JUMPDEST PUSH1 0x0 PUSH1 0x20 DUP3 DUP5 SUB SLT ISZERO PUSH2 0x2A0 JUMPI PUSH1 0x0 DUP1 REVERT JUMPDEST PUSH2 0x26B DUP3 PUSH2 0x272 JUMP JUMPDEST PUSH1 0x0 PUSH1 0x20 DUP3 DUP5 SUB SLT ISZERO PUSH2 0x2BB JUMPI PUSH1 0x0 DUP1 REVERT JUMPDEST POP CALLDATALOAD SWAP2 SWAP1 POP JUMP JUMPDEST PUSH1 0x0 DUP1 PUSH1 0x40 DUP4 DUP6 SUB SLT ISZERO PUSH2 0x2D5 JUMPI PUSH1 0x0 DUP1 REVERT JUMPDEST PUSH2 0x2DE DUP4 PUSH2 0x272 JUMP JUMPDEST SWAP5 PUSH1 0x20 SWAP4 SWAP1 SWAP4 ADD CALLDATALOAD SWAP4 POP POP POP JUMP INVALID LOG2 PUSH5 0x6970667358 0x22 SLT KECCAK256 MUL PUSH12 0xDA82B289D64CCC37915F4785 0xC0 0xBE PUSH11 0xAE83ED992E18A5E50A6E69 COINBASE SWAP4 MLOAD 0xCD PUSH5 0x736F6C6343 STOP ADDMOD SGT STOP CALLER "},"methodIdentifiers":{"getKYCHash(address)":"05364096","hasKYC(address)":"5249e862","isKYCVerified(address)":"54b7636e","kycHash(address)":"d7ed6f14","storeKYC(bytes32)":"6bf127c0","verifyKYC(address,bytes32)":"a5b50ee2"}}}}}